{
  "_format": "hh-sol-artifact-1",
  "contractName": "BrnToken",
  "sourceName": "contracts/Burnable.sol",
  "abi": [
    {
      "inputs": [],
      "stateMutability": "nonpayable",
      "type": "constructor"
    },
    {
      "inputs": [],
      "name": "DontHaveEnoughBalance",
      "type": "error"
    },
    {
      "inputs": [],
      "name": "StakingTimeIsRemain",
      "type": "error"
    },
    {
      "inputs": [],
      "name": "TransferFaild",
      "type": "error"
    },
    {
      "inputs": [],
      "name": "YouAreNotAuthorise",
      "type": "error"
    },
    {
      "inputs": [],
      "name": "pleaseEnterRightPersntage",
      "type": "error"
    },
    {
      "inputs": [],
      "name": "pleaseSendSlaePrice",
      "type": "error"
    },
    {
      "inputs": [],
      "name": "pleaseSendTokenPrice",
      "type": "error"
    },
    {
      "inputs": [],
      "name": "totalSupplyExceed",
      "type": "error"
    },
    {
      "anonymous": false,
      "inputs": [
        {
          "indexed": true,
          "internalType": "address",
          "name": "owner",
          "type": "address"
        },
        {
          "indexed": true,
          "internalType": "address",
          "name": "spender",
          "type": "address"
        },
        {
          "indexed": false,
          "internalType": "uint256",
          "name": "value",
          "type": "uint256"
        }
      ],
      "name": "Approval",
      "type": "event"
    },
    {
      "anonymous": false,
      "inputs": [
        {
          "indexed": true,
          "internalType": "address",
          "name": "previousOwner",
          "type": "address"
        },
        {
          "indexed": true,
          "internalType": "address",
          "name": "newOwner",
          "type": "address"
        }
      ],
      "name": "OwnershipTransferred",
      "type": "event"
    },
    {
      "anonymous": false,
      "inputs": [
        {
          "indexed": true,
          "internalType": "address",
          "name": "from",
          "type": "address"
        },
        {
          "indexed": true,
          "internalType": "address",
          "name": "to",
          "type": "address"
        },
        {
          "indexed": false,
          "internalType": "uint256",
          "name": "value",
          "type": "uint256"
        }
      ],
      "name": "Transfer",
      "type": "event"
    },
    {
      "inputs": [
        {
          "internalType": "uint256",
          "name": "_listingId",
          "type": "uint256"
        },
        {
          "internalType": "uint256",
          "name": "_amount",
          "type": "uint256"
        }
      ],
      "name": "BuyToken",
      "outputs": [],
      "stateMutability": "payable",
      "type": "function"
    },
    {
      "inputs": [],
      "name": "ListedTokens",
      "outputs": [
        {
          "components": [
            {
              "internalType": "uint256",
              "name": "tokenId",
              "type": "uint256"
            },
            {
              "internalType": "uint256",
              "name": "tokens",
              "type": "uint256"
            },
            {
              "internalType": "uint256",
              "name": "price",
              "type": "uint256"
            },
            {
              "internalType": "address",
              "name": "seller",
              "type": "address"
            }
          ],
          "internalType": "struct BrnToken.Sale[]",
          "name": "",
          "type": "tuple[]"
        }
      ],
      "stateMutability": "view",
      "type": "function"
    },
    {
      "inputs": [],
      "name": "Reward",
      "outputs": [
        {
          "internalType": "uint256",
          "name": "",
          "type": "uint256"
        }
      ],
      "stateMutability": "view",
      "type": "function"
    },
    {
      "inputs": [
        {
          "internalType": "uint256",
          "name": "_tokens",
          "type": "uint256"
        },
        {
          "internalType": "uint256",
          "name": "price",
          "type": "uint256"
        }
      ],
      "name": "SellTokens",
      "outputs": [],
      "stateMutability": "nonpayable",
      "type": "function"
    },
    {
      "inputs": [
        {
          "internalType": "uint256",
          "name": "stakingId",
          "type": "uint256"
        }
      ],
      "name": "WithdrawStakingTokens",
      "outputs": [],
      "stateMutability": "nonpayable",
      "type": "function"
    },
    {
      "inputs": [
        {
          "internalType": "address",
          "name": "owner",
          "type": "address"
        },
        {
          "internalType": "address",
          "name": "spender",
          "type": "address"
        }
      ],
      "name": "allowance",
      "outputs": [
        {
          "internalType": "uint256",
          "name": "",
          "type": "uint256"
        }
      ],
      "stateMutability": "view",
      "type": "function"
    },
    {
      "inputs": [
        {
          "internalType": "address",
          "name": "spender",
          "type": "address"
        },
        {
          "internalType": "uint256",
          "name": "amount",
          "type": "uint256"
        }
      ],
      "name": "approve",
      "outputs": [
        {
          "internalType": "bool",
          "name": "",
          "type": "bool"
        }
      ],
      "stateMutability": "nonpayable",
      "type": "function"
    },
    {
      "inputs": [
        {
          "internalType": "address",
          "name": "account",
          "type": "address"
        }
      ],
      "name": "balanceOf",
      "outputs": [
        {
          "internalType": "uint256",
          "name": "",
          "type": "uint256"
        }
      ],
      "stateMutability": "view",
      "type": "function"
    },
    {
      "inputs": [
        {
          "internalType": "uint256",
          "name": "amount",
          "type": "uint256"
        }
      ],
      "name": "burnPersontage",
      "outputs": [
        {
          "internalType": "uint256",
          "name": "",
          "type": "uint256"
        }
      ],
      "stateMutability": "view",
      "type": "function"
    },
    {
      "inputs": [],
      "name": "burnfee",
      "outputs": [
        {
          "internalType": "uint256",
          "name": "",
          "type": "uint256"
        }
      ],
      "stateMutability": "view",
      "type": "function"
    },
    {
      "inputs": [],
      "name": "decimals",
      "outputs": [
        {
          "internalType": "uint8",
          "name": "",
          "type": "uint8"
        }
      ],
      "stateMutability": "view",
      "type": "function"
    },
    {
      "inputs": [
        {
          "internalType": "address",
          "name": "spender",
          "type": "address"
        },
        {
          "internalType": "uint256",
          "name": "subtractedValue",
          "type": "uint256"
        }
      ],
      "name": "decreaseAllowance",
      "outputs": [
        {
          "internalType": "bool",
          "name": "",
          "type": "bool"
        }
      ],
      "stateMutability": "nonpayable",
      "type": "function"
    },
    {
      "inputs": [
        {
          "internalType": "address",
          "name": "spender",
          "type": "address"
        },
        {
          "internalType": "uint256",
          "name": "addedValue",
          "type": "uint256"
        }
      ],
      "name": "increaseAllowance",
      "outputs": [
        {
          "internalType": "bool",
          "name": "",
          "type": "bool"
        }
      ],
      "stateMutability": "nonpayable",
      "type": "function"
    },
    {
      "inputs": [
        {
          "internalType": "uint256",
          "name": "",
          "type": "uint256"
        }
      ],
      "name": "listing",
      "outputs": [
        {
          "internalType": "uint256",
          "name": "tokenId",
          "type": "uint256"
        },
        {
          "internalType": "uint256",
          "name": "tokens",
          "type": "uint256"
        },
        {
          "internalType": "uint256",
          "name": "price",
          "type": "uint256"
        },
        {
          "internalType": "address",
          "name": "seller",
          "type": "address"
        }
      ],
      "stateMutability": "view",
      "type": "function"
    },
    {
      "inputs": [],
      "name": "listingId",
      "outputs": [
        {
          "internalType": "uint256",
          "name": "_value",
          "type": "uint256"
        }
      ],
      "stateMutability": "view",
      "type": "function"
    },
    {
      "inputs": [
        {
          "internalType": "address",
          "name": "to",
          "type": "address"
        },
        {
          "internalType": "uint256",
          "name": "_amount",
          "type": "uint256"
        }
      ],
      "name": "mint",
      "outputs": [],
      "stateMutability": "payable",
      "type": "function"
    },
    {
      "inputs": [],
      "name": "name",
      "outputs": [
        {
          "internalType": "string",
          "name": "",
          "type": "string"
        }
      ],
      "stateMutability": "view",
      "type": "function"
    },
    {
      "inputs": [],
      "name": "owner",
      "outputs": [
        {
          "internalType": "address",
          "name": "",
          "type": "address"
        }
      ],
      "stateMutability": "view",
      "type": "function"
    },
    {
      "inputs": [],
      "name": "renounceOwnership",
      "outputs": [],
      "stateMutability": "nonpayable",
      "type": "function"
    },
    {
      "inputs": [
        {
          "internalType": "uint256",
          "name": "_amount",
          "type": "uint256"
        }
      ],
      "name": "setburnAmount",
      "outputs": [],
      "stateMutability": "nonpayable",
      "type": "function"
    },
    {
      "inputs": [
        {
          "internalType": "uint256",
          "name": "",
          "type": "uint256"
        }
      ],
      "name": "staking",
      "outputs": [
        {
          "internalType": "uint256",
          "name": "satkeId",
          "type": "uint256"
        },
        {
          "internalType": "address",
          "name": "staker",
          "type": "address"
        },
        {
          "internalType": "uint256",
          "name": "tokens",
          "type": "uint256"
        },
        {
          "internalType": "uint256",
          "name": "stakingTime",
          "type": "uint256"
        },
        {
          "internalType": "uint256",
          "name": "stakingEndTime",
          "type": "uint256"
        }
      ],
      "stateMutability": "view",
      "type": "function"
    },
    {
      "inputs": [],
      "name": "stakingId",
      "outputs": [
        {
          "internalType": "uint256",
          "name": "",
          "type": "uint256"
        }
      ],
      "stateMutability": "view",
      "type": "function"
    },
    {
      "inputs": [
        {
          "internalType": "uint256",
          "name": "amount",
          "type": "uint256"
        }
      ],
      "name": "stakingReward",
      "outputs": [
        {
          "internalType": "uint256",
          "name": "",
          "type": "uint256"
        }
      ],
      "stateMutability": "view",
      "type": "function"
    },
    {
      "inputs": [],
      "name": "stakingTime",
      "outputs": [
        {
          "internalType": "uint256",
          "name": "",
          "type": "uint256"
        }
      ],
      "stateMutability": "view",
      "type": "function"
    },
    {
      "inputs": [],
      "name": "supply",
      "outputs": [
        {
          "internalType": "uint256",
          "name": "",
          "type": "uint256"
        }
      ],
      "stateMutability": "view",
      "type": "function"
    },
    {
      "inputs": [],
      "name": "symbol",
      "outputs": [
        {
          "internalType": "string",
          "name": "",
          "type": "string"
        }
      ],
      "stateMutability": "view",
      "type": "function"
    },
    {
      "inputs": [],
      "name": "tokenPrice",
      "outputs": [
        {
          "internalType": "uint256",
          "name": "",
          "type": "uint256"
        }
      ],
      "stateMutability": "view",
      "type": "function"
    },
    {
      "inputs": [
        {
          "internalType": "uint256",
          "name": "_tokens",
          "type": "uint256"
        }
      ],
      "name": "tokenStaking",
      "outputs": [],
      "stateMutability": "nonpayable",
      "type": "function"
    },
    {
      "inputs": [],
      "name": "totalSupply",
      "outputs": [
        {
          "internalType": "uint256",
          "name": "",
          "type": "uint256"
        }
      ],
      "stateMutability": "view",
      "type": "function"
    },
    {
      "inputs": [
        {
          "internalType": "address",
          "name": "to",
          "type": "address"
        },
        {
          "internalType": "uint256",
          "name": "amount",
          "type": "uint256"
        }
      ],
      "name": "transfer",
      "outputs": [
        {
          "internalType": "bool",
          "name": "",
          "type": "bool"
        }
      ],
      "stateMutability": "nonpayable",
      "type": "function"
    },
    {
      "inputs": [
        {
          "internalType": "address",
          "name": "from",
          "type": "address"
        },
        {
          "internalType": "address",
          "name": "to",
          "type": "address"
        },
        {
          "internalType": "uint256",
          "name": "amount",
          "type": "uint256"
        }
      ],
      "name": "transferFrom",
      "outputs": [
        {
          "internalType": "bool",
          "name": "",
          "type": "bool"
        }
      ],
      "stateMutability": "nonpayable",
      "type": "function"
    },
    {
      "inputs": [
        {
          "internalType": "address",
          "name": "newOwner",
          "type": "address"
        }
      ],
      "name": "transferOwnership",
      "outputs": [],
      "stateMutability": "nonpayable",
      "type": "function"
    },
    {
      "inputs": [],
      "name": "withdraw",
      "outputs": [],
      "stateMutability": "nonpayable",
      "type": "function"
    }
  ],
  "bytecode": "0x60806040526201518060075561138860085568056bc75e2d6310000060095560c8600a556001600b553480156200003557600080fd5b506040518060400160405280600981526020017f546f6b656e4275726e00000000000000000000000000000000000000000000008152506040518060400160405280600381526020017f54425400000000000000000000000000000000000000000000000000000000008152508160039081620000b3919062000436565b508060049081620000c5919062000436565b505050620000e8620000dc620000ee60201b60201c565b620000f660201b60201c565b6200051d565b600033905090565b6000600560009054906101000a900473ffffffffffffffffffffffffffffffffffffffff16905081600560006101000a81548173ffffffffffffffffffffffffffffffffffffffff021916908373ffffffffffffffffffffffffffffffffffffffff1602179055508173ffffffffffffffffffffffffffffffffffffffff168173ffffffffffffffffffffffffffffffffffffffff167f8be0079c531659141344cd1fd0a4f28419497f9722a3daafe3b4186f6b6457e060405160405180910390a35050565b600081519050919050565b7f4e487b7100000000000000000000000000000000000000000000000000000000600052604160045260246000fd5b7f4e487b7100000000000000000000000000000000000000000000000000000000600052602260045260246000fd5b600060028204905060018216806200023e57607f821691505b602082108103620002545762000253620001f6565b5b50919050565b60008190508160005260206000209050919050565b60006020601f8301049050919050565b600082821b905092915050565b600060088302620002be7fffffffffffffffffffffffffffffffffffffffffffffffffffffffffffffffff826200027f565b620002ca86836200027f565b95508019841693508086168417925050509392505050565b6000819050919050565b6000819050919050565b600062000317620003116200030b84620002e2565b620002ec565b620002e2565b9050919050565b6000819050919050565b6200033383620002f6565b6200034b62000342826200031e565b8484546200028c565b825550505050565b600090565b6200036262000353565b6200036f81848462000328565b505050565b5b8181101562000397576200038b60008262000358565b60018101905062000375565b5050565b601f821115620003e657620003b0816200025a565b620003bb846200026f565b81016020851015620003cb578190505b620003e3620003da856200026f565b83018262000374565b50505b505050565b600082821c905092915050565b60006200040b60001984600802620003eb565b1980831691505092915050565b6000620004268383620003f8565b9150826002028217905092915050565b6200044182620001bc565b67ffffffffffffffff8111156200045d576200045c620001c7565b5b62000469825462000225565b620004768282856200039b565b600060209050601f831160018114620004ae576000841562000499578287015190505b620004a5858262000418565b86555062000515565b601f198416620004be866200025a565b60005b82811015620004e857848901518255600182019150602085019450602081019050620004c1565b8683101562000508578489015162000504601f891682620003f8565b8355505b6001600288020188555050505b505050505050565b612ffc806200052d6000396000f3fe6080604052600436106101ee5760003560e01c80637ff9b5961161010d578063a457c2d7116100a0578063dd62ed3e1161006f578063dd62ed3e14610716578063e2e15f2e14610753578063e8cd8a8f1461077e578063e9f60eb6146107a9578063f2fde38b146107d2576101ee565b8063a457c2d714610622578063a817619a1461065f578063a9059cbb1461069c578063af3a82cb146106d9576101ee565b80639405dfdd116100dc5780639405dfdd1461057857806395d89b41146105a35780639d49be33146105ce578063a093153d146105f9576101ee565b80637ff9b596146104b957806384a184de146104e45780638d2450ca146105245780638da5cb5b1461054d576101ee565b806323b872dd1161018557806340c10f191161015457806340c10f191461042d5780636ffe5b061461044957806370a0823114610465578063715018a6146104a2576101ee565b806323b872dd14610371578063313ce567146103ae57806339509351146103d95780633ccfd60b14610416576101ee565b806313369d2c116101c157806313369d2c146102b1578063146d4574146102da57806318160ddd146103055780631dbb2a2214610330576101ee565b806303726357146101f3578063047fc9aa1461021e57806306fdde0314610249578063095ea7b314610274575b600080fd5b3480156101ff57600080fd5b506102086107fb565b60405161021591906120e6565b60405180910390f35b34801561022a57600080fd5b50610233610801565b60405161024091906120e6565b60405180910390f35b34801561025557600080fd5b5061025e610807565b60405161026b9190612191565b60405180910390f35b34801561028057600080fd5b5061029b60048036038101906102969190612242565b610899565b6040516102a8919061229d565b60405180910390f35b3480156102bd57600080fd5b506102d860048036038101906102d391906122b8565b6108bc565b005b3480156102e657600080fd5b506102ef610af9565b6040516102fc91906120e6565b60405180910390f35b34801561031157600080fd5b5061031a610aff565b60405161032791906120e6565b60405180910390f35b34801561033c57600080fd5b50610357600480360381019061035291906122b8565b610b09565b6040516103689594939291906122f4565b60405180910390f35b34801561037d57600080fd5b5061039860048036038101906103939190612347565b610b5f565b6040516103a5919061229d565b60405180910390f35b3480156103ba57600080fd5b506103c3610b8e565b6040516103d091906123b6565b60405180910390f35b3480156103e557600080fd5b5061040060048036038101906103fb9190612242565b610b97565b60405161040d919061229d565b60405180910390f35b34801561042257600080fd5b5061042b610bce565b005b61044760048036038101906104429190612242565b610c7c565b005b610463600480360381019061045e91906123d1565b610d1f565b005b34801561047157600080fd5b5061048c60048036038101906104879190612411565b610f87565b60405161049991906120e6565b60405180910390f35b3480156104ae57600080fd5b506104b7610fcf565b005b3480156104c557600080fd5b506104ce610fe3565b6040516104db91906120e6565b60405180910390f35b3480156104f057600080fd5b5061050b600480360381019061050691906122b8565b610fe9565b60405161051b949392919061243e565b60405180910390f35b34801561053057600080fd5b5061054b600480360381019061054691906122b8565b611039565b005b34801561055957600080fd5b50610562611087565b60405161056f9190612483565b60405180910390f35b34801561058457600080fd5b5061058d6110b1565b60405161059a91906120e6565b60405180910390f35b3480156105af57600080fd5b506105b86110bd565b6040516105c59190612191565b60405180910390f35b3480156105da57600080fd5b506105e361114f565b6040516105f091906120e6565b60405180910390f35b34801561060557600080fd5b50610620600480360381019061061b91906122b8565b611155565b005b34801561062e57600080fd5b5061064960048036038101906106449190612242565b611296565b604051610656919061229d565b60405180910390f35b34801561066b57600080fd5b50610686600480360381019061068191906122b8565b61130d565b60405161069391906120e6565b60405180910390f35b3480156106a857600080fd5b506106c360048036038101906106be9190612242565b611331565b6040516106d0919061229d565b60405180910390f35b3480156106e557600080fd5b5061070060048036038101906106fb91906122b8565b61137d565b60405161070d91906120e6565b60405180910390f35b34801561072257600080fd5b5061073d6004803603810190610738919061249e565b6113a1565b60405161074a91906120e6565b60405180910390f35b34801561075f57600080fd5b50610768611428565b60405161077591906120e6565b60405180910390f35b34801561078a57600080fd5b5061079361142e565b6040516107a09190612600565b60405180910390f35b3480156107b557600080fd5b506107d060048036038101906107cb91906123d1565b61156d565b005b3480156107de57600080fd5b506107f960048036038101906107f49190612411565b611689565b005b600a5481565b60095481565b60606003805461081690612651565b80601f016020809104026020016040519081016040528092919081815260200182805461084290612651565b801561088f5780601f106108645761010080835404028352916020019161088f565b820191906000526020600020905b81548152906001019060200180831161087257829003601f168201915b5050505050905090565b6000806108a461170c565b90506108b1818585611714565b600191505092915050565b6000600e60008381526020019081526020016000206040518060a0016040529081600082015481526020016001820160009054906101000a900473ffffffffffffffffffffffffffffffffffffffff1673ffffffffffffffffffffffffffffffffffffffff1673ffffffffffffffffffffffffffffffffffffffff16815260200160028201548152602001600382015481526020016004820154815250509050806020015173ffffffffffffffffffffffffffffffffffffffff163373ffffffffffffffffffffffffffffffffffffffff16146109c5576040517f5aacf27700000000000000000000000000000000000000000000000000000000815260040160405180910390fd5b8060800151421015610a03576040517f070736f400000000000000000000000000000000000000000000000000000000815260040160405180910390fd5b6000610a12826040015161137d565b90503073ffffffffffffffffffffffffffffffffffffffff1663a9059cbb8360200151836040518363ffffffff1660e01b8152600401610a53929190612682565b6020604051808303816000875af1158015610a72573d6000803e3d6000fd5b505050506040513d601f19601f82011682018060405250810190610a9691906126d7565b50600e60008481526020019081526020016000206000808201600090556001820160006101000a81549073ffffffffffffffffffffffffffffffffffffffff02191690556002820160009055600382016000905560048201600090555050505050565b60075481565b6000600254905090565b600e6020528060005260406000206000915090508060000154908060010160009054906101000a900473ffffffffffffffffffffffffffffffffffffffff16908060020154908060030154908060040154905085565b600080610b6a61170c565b9050610b778582856118dd565b610b82858585611969565b60019150509392505050565b60006012905090565b600080610ba261170c565b9050610bc3818585610bb485896113a1565b610bbe9190612733565b611714565b600191505092915050565b610bd6611be8565b60003373ffffffffffffffffffffffffffffffffffffffff1647604051610bfc90612798565b60006040518083038185875af1925050503d8060008114610c39576040519150601f19603f3d011682016040523d82523d6000602084013e610c3e565b606091505b5050905080610c79576040517fb9632e9e00000000000000000000000000000000000000000000000000000000815260040160405180910390fd5b50565b60095481610c88610aff565b610c929190612733565b1115610cca576040517f3bcfb71200000000000000000000000000000000000000000000000000000000815260040160405180910390fd5b600b5481610cd891906127ad565b341015610d11576040517f8bbdc31c00000000000000000000000000000000000000000000000000000000815260040160405180910390fd5b610d1b8282611c66565b5050565b6000600d60008481526020019081526020016000206040518060800160405290816000820154815260200160018201548152602001600282015481526020016003820160009054906101000a900473ffffffffffffffffffffffffffffffffffffffff1673ffffffffffffffffffffffffffffffffffffffff1673ffffffffffffffffffffffffffffffffffffffff168152505090508060400151341015610df3576040517f13d6511900000000000000000000000000000000000000000000000000000000815260040160405180910390fd5b6000816060015173ffffffffffffffffffffffffffffffffffffffff1634604051610e1d90612798565b60006040518083038185875af1925050503d8060008114610e5a576040519150601f19603f3d011682016040523d82523d6000602084013e610e5f565b606091505b5050905080610e9a576040517fb9632e9e00000000000000000000000000000000000000000000000000000000815260040160405180910390fd5b6000610ea461170c565b90503073ffffffffffffffffffffffffffffffffffffffff166323b872dd846060015183876040518463ffffffff1660e01b8152600401610ee7939291906127ef565b6020604051808303816000875af1158015610f06573d6000803e3d6000fd5b505050506040513d601f19601f82011682018060405250810190610f2a91906126d7565b50600d6000868152602001908152602001600020600080820160009055600182016000905560028201600090556003820160006101000a81549073ffffffffffffffffffffffffffffffffffffffff021916905550505050505050565b60008060008373ffffffffffffffffffffffffffffffffffffffff1673ffffffffffffffffffffffffffffffffffffffff168152602001908152602001600020549050919050565b610fd7611be8565b610fe16000611dc5565b565b600b5481565b600d6020528060005260406000206000915090508060000154908060010154908060020154908060030160009054906101000a900473ffffffffffffffffffffffffffffffffffffffff16905084565b611041611be8565b6103e881111561107d576040517f330d733100000000000000000000000000000000000000000000000000000000815260040160405180910390fd5b80600a8190555050565b6000600560009054906101000a900473ffffffffffffffffffffffffffffffffffffffff16905090565b60068060000154905081565b6060600480546110cc90612651565b80601f01602080910402602001604051908101604052809291908181526020018280546110f890612651565b80156111455780601f1061111a57610100808354040283529160200191611145565b820191906000526020600020905b81548152906001019060200180831161112857829003601f168201915b5050505050905090565b600c5481565b8061115f33610f87565b1015611197576040517f1368af5900000000000000000000000000000000000000000000000000000000815260040160405180910390fd5b6111a13082611331565b50600c60008154809291906111b590612826565b91905055506000426007546111ca9190612733565b90506040518060a00160405280600c5481526020013373ffffffffffffffffffffffffffffffffffffffff16815260200183815260200142815260200182815250600e6000600c5481526020019081526020016000206000820151816000015560208201518160010160006101000a81548173ffffffffffffffffffffffffffffffffffffffff021916908373ffffffffffffffffffffffffffffffffffffffff1602179055506040820151816002015560608201518160030155608082015181600401559050505050565b6000806112a161170c565b905060006112af82866113a1565b9050838110156112f4576040517f08c379a00000000000000000000000000000000000000000000000000000000081526004016112eb906128e0565b60405180910390fd5b6113018286868403611714565b60019250505092915050565b6000600a5461271083611320919061292f565b61132a91906127ad565b9050919050565b60008061133d8361130d565b90506000818461134d9190612960565b9050600061135961170c565b90506113658184611e8b565b611370818784611969565b6001935050505092915050565b600060085461271083611390919061292f565b61139a91906127ad565b9050919050565b6000600160008473ffffffffffffffffffffffffffffffffffffffff1673ffffffffffffffffffffffffffffffffffffffff16815260200190815260200160002060008373ffffffffffffffffffffffffffffffffffffffff1673ffffffffffffffffffffffffffffffffffffffff16815260200190815260200160002054905092915050565b60085481565b6060600061143c6006612061565b905060008167ffffffffffffffff81111561145a57611459612994565b5b60405190808252806020026020018201604052801561149357816020015b61148061208f565b8152602001906001900390816114785790505b50905060005b8281101561156457600d60008281526020019081526020016000206040518060800160405290816000820154815260200160018201548152602001600282015481526020016003820160009054906101000a900473ffffffffffffffffffffffffffffffffffffffff1673ffffffffffffffffffffffffffffffffffffffff1673ffffffffffffffffffffffffffffffffffffffff1681525050828281518110611546576115456129c3565b5b6020026020010181905250808061155c90612826565b915050611499565b50809250505090565b8161157733610f87565b10156115af576040517f1368af5900000000000000000000000000000000000000000000000000000000815260040160405180910390fd5b6115b93083610899565b5060006115c66006612061565b905060405180608001604052808281526020018481526020018381526020013373ffffffffffffffffffffffffffffffffffffffff16815250600d600083815260200190815260200160002060008201518160000155602082015181600101556040820151816002015560608201518160030160006101000a81548173ffffffffffffffffffffffffffffffffffffffff021916908373ffffffffffffffffffffffffffffffffffffffff160217905550905050611684600661206f565b505050565b611691611be8565b600073ffffffffffffffffffffffffffffffffffffffff168173ffffffffffffffffffffffffffffffffffffffff1603611700576040517f08c379a00000000000000000000000000000000000000000000000000000000081526004016116f790612a64565b60405180910390fd5b61170981611dc5565b50565b600033905090565b600073ffffffffffffffffffffffffffffffffffffffff168373ffffffffffffffffffffffffffffffffffffffff1603611783576040517f08c379a000000000000000000000000000000000000000000000000000000000815260040161177a90612af6565b60405180910390fd5b600073ffffffffffffffffffffffffffffffffffffffff168273ffffffffffffffffffffffffffffffffffffffff16036117f2576040517f08c379a00000000000000000000000000000000000000000000000000000000081526004016117e990612b88565b60405180910390fd5b80600160008573ffffffffffffffffffffffffffffffffffffffff1673ffffffffffffffffffffffffffffffffffffffff16815260200190815260200160002060008473ffffffffffffffffffffffffffffffffffffffff1673ffffffffffffffffffffffffffffffffffffffff168152602001908152602001600020819055508173ffffffffffffffffffffffffffffffffffffffff168373ffffffffffffffffffffffffffffffffffffffff167f8c5be1e5ebec7d5bd14f71427d1e84f3dd0314c0f7b2291e5b200ac8c7c3b925836040516118d091906120e6565b60405180910390a3505050565b60006118e984846113a1565b90507fffffffffffffffffffffffffffffffffffffffffffffffffffffffffffffffff81146119635781811015611955576040517f08c379a000000000000000000000000000000000000000000000000000000000815260040161194c90612bf4565b60405180910390fd5b6119628484848403611714565b5b50505050565b600073ffffffffffffffffffffffffffffffffffffffff168373ffffffffffffffffffffffffffffffffffffffff16036119d8576040517f08c379a00000000000000000000000000000000000000000000000000000000081526004016119cf90612c86565b60405180910390fd5b600073ffffffffffffffffffffffffffffffffffffffff168273ffffffffffffffffffffffffffffffffffffffff1603611a47576040517f08c379a0000000000000000000000000000000000000000000000000000000008152600401611a3e90612d18565b60405180910390fd5b611a52838383612085565b60008060008573ffffffffffffffffffffffffffffffffffffffff1673ffffffffffffffffffffffffffffffffffffffff16815260200190815260200160002054905081811015611ad8576040517f08c379a0000000000000000000000000000000000000000000000000000000008152600401611acf90612daa565b60405180910390fd5b8181036000808673ffffffffffffffffffffffffffffffffffffffff1673ffffffffffffffffffffffffffffffffffffffff16815260200190815260200160002081905550816000808573ffffffffffffffffffffffffffffffffffffffff1673ffffffffffffffffffffffffffffffffffffffff1681526020019081526020016000206000828254611b6b9190612733565b925050819055508273ffffffffffffffffffffffffffffffffffffffff168473ffffffffffffffffffffffffffffffffffffffff167fddf252ad1be2c89b69c2b068fc378daa952ba7f163c4a11628f55a4df523b3ef84604051611bcf91906120e6565b60405180910390a3611be284848461208a565b50505050565b611bf061170c565b73ffffffffffffffffffffffffffffffffffffffff16611c0e611087565b73ffffffffffffffffffffffffffffffffffffffff1614611c64576040517f08c379a0000000000000000000000000000000000000000000000000000000008152600401611c5b90612e16565b60405180910390fd5b565b600073ffffffffffffffffffffffffffffffffffffffff168273ffffffffffffffffffffffffffffffffffffffff1603611cd5576040517f08c379a0000000000000000000000000000000000000000000000000000000008152600401611ccc90612e82565b60405180910390fd5b611ce160008383612085565b8060026000828254611cf39190612733565b92505081905550806000808473ffffffffffffffffffffffffffffffffffffffff1673ffffffffffffffffffffffffffffffffffffffff1681526020019081526020016000206000828254611d489190612733565b925050819055508173ffffffffffffffffffffffffffffffffffffffff16600073ffffffffffffffffffffffffffffffffffffffff167fddf252ad1be2c89b69c2b068fc378daa952ba7f163c4a11628f55a4df523b3ef83604051611dad91906120e6565b60405180910390a3611dc16000838361208a565b5050565b6000600560009054906101000a900473ffffffffffffffffffffffffffffffffffffffff16905081600560006101000a81548173ffffffffffffffffffffffffffffffffffffffff021916908373ffffffffffffffffffffffffffffffffffffffff1602179055508173ffffffffffffffffffffffffffffffffffffffff168173ffffffffffffffffffffffffffffffffffffffff167f8be0079c531659141344cd1fd0a4f28419497f9722a3daafe3b4186f6b6457e060405160405180910390a35050565b600073ffffffffffffffffffffffffffffffffffffffff168273ffffffffffffffffffffffffffffffffffffffff1603611efa576040517f08c379a0000000000000000000000000000000000000000000000000000000008152600401611ef190612f14565b60405180910390fd5b611f0682600083612085565b60008060008473ffffffffffffffffffffffffffffffffffffffff1673ffffffffffffffffffffffffffffffffffffffff16815260200190815260200160002054905081811015611f8c576040517f08c379a0000000000000000000000000000000000000000000000000000000008152600401611f8390612fa6565b60405180910390fd5b8181036000808573ffffffffffffffffffffffffffffffffffffffff1673ffffffffffffffffffffffffffffffffffffffff168152602001908152602001600020819055508160026000828254611fe39190612960565b92505081905550600073ffffffffffffffffffffffffffffffffffffffff168373ffffffffffffffffffffffffffffffffffffffff167fddf252ad1be2c89b69c2b068fc378daa952ba7f163c4a11628f55a4df523b3ef8460405161204891906120e6565b60405180910390a361205c8360008461208a565b505050565b600081600001549050919050565b6001816000016000828254019250508190555050565b505050565b505050565b6040518060800160405280600081526020016000815260200160008152602001600073ffffffffffffffffffffffffffffffffffffffff1681525090565b6000819050919050565b6120e0816120cd565b82525050565b60006020820190506120fb60008301846120d7565b92915050565b600081519050919050565b600082825260208201905092915050565b60005b8381101561213b578082015181840152602081019050612120565b60008484015250505050565b6000601f19601f8301169050919050565b600061216382612101565b61216d818561210c565b935061217d81856020860161211d565b61218681612147565b840191505092915050565b600060208201905081810360008301526121ab8184612158565b905092915050565b600080fd5b600073ffffffffffffffffffffffffffffffffffffffff82169050919050565b60006121e3826121b8565b9050919050565b6121f3816121d8565b81146121fe57600080fd5b50565b600081359050612210816121ea565b92915050565b61221f816120cd565b811461222a57600080fd5b50565b60008135905061223c81612216565b92915050565b60008060408385031215612259576122586121b3565b5b600061226785828601612201565b92505060206122788582860161222d565b9150509250929050565b60008115159050919050565b61229781612282565b82525050565b60006020820190506122b2600083018461228e565b92915050565b6000602082840312156122ce576122cd6121b3565b5b60006122dc8482850161222d565b91505092915050565b6122ee816121d8565b82525050565b600060a08201905061230960008301886120d7565b61231660208301876122e5565b61232360408301866120d7565b61233060608301856120d7565b61233d60808301846120d7565b9695505050505050565b6000806000606084860312156123605761235f6121b3565b5b600061236e86828701612201565b935050602061237f86828701612201565b92505060406123908682870161222d565b9150509250925092565b600060ff82169050919050565b6123b08161239a565b82525050565b60006020820190506123cb60008301846123a7565b92915050565b600080604083850312156123e8576123e76121b3565b5b60006123f68582860161222d565b92505060206124078582860161222d565b9150509250929050565b600060208284031215612427576124266121b3565b5b600061243584828501612201565b91505092915050565b600060808201905061245360008301876120d7565b61246060208301866120d7565b61246d60408301856120d7565b61247a60608301846122e5565b95945050505050565b600060208201905061249860008301846122e5565b92915050565b600080604083850312156124b5576124b46121b3565b5b60006124c385828601612201565b92505060206124d485828601612201565b9150509250929050565b600081519050919050565b600082825260208201905092915050565b6000819050602082019050919050565b612513816120cd565b82525050565b612522816121d8565b82525050565b60808201600082015161253e600085018261250a565b506020820151612551602085018261250a565b506040820151612564604085018261250a565b5060608201516125776060850182612519565b50505050565b60006125898383612528565b60808301905092915050565b6000602082019050919050565b60006125ad826124de565b6125b781856124e9565b93506125c2836124fa565b8060005b838110156125f35781516125da888261257d565b97506125e583612595565b9250506001810190506125c6565b5085935050505092915050565b6000602082019050818103600083015261261a81846125a2565b905092915050565b7f4e487b7100000000000000000000000000000000000000000000000000000000600052602260045260246000fd5b6000600282049050600182168061266957607f821691505b60208210810361267c5761267b612622565b5b50919050565b600060408201905061269760008301856122e5565b6126a460208301846120d7565b9392505050565b6126b481612282565b81146126bf57600080fd5b50565b6000815190506126d1816126ab565b92915050565b6000602082840312156126ed576126ec6121b3565b5b60006126fb848285016126c2565b91505092915050565b7f4e487b7100000000000000000000000000000000000000000000000000000000600052601160045260246000fd5b600061273e826120cd565b9150612749836120cd565b925082820190508082111561276157612760612704565b5b92915050565b600081905092915050565b50565b6000612782600083612767565b915061278d82612772565b600082019050919050565b60006127a382612775565b9150819050919050565b60006127b8826120cd565b91506127c3836120cd565b92508282026127d1816120cd565b915082820484148315176127e8576127e7612704565b5b5092915050565b600060608201905061280460008301866122e5565b61281160208301856122e5565b61281e60408301846120d7565b949350505050565b6000612831826120cd565b91507fffffffffffffffffffffffffffffffffffffffffffffffffffffffffffffffff820361286357612862612704565b5b600182019050919050565b7f45524332303a2064656372656173656420616c6c6f77616e63652062656c6f7760008201527f207a65726f000000000000000000000000000000000000000000000000000000602082015250565b60006128ca60258361210c565b91506128d58261286e565b604082019050919050565b600060208201905081810360008301526128f9816128bd565b9050919050565b7f4e487b7100000000000000000000000000000000000000000000000000000000600052601260045260246000fd5b600061293a826120cd565b9150612945836120cd565b92508261295557612954612900565b5b828204905092915050565b600061296b826120cd565b9150612976836120cd565b925082820390508181111561298e5761298d612704565b5b92915050565b7f4e487b7100000000000000000000000000000000000000000000000000000000600052604160045260246000fd5b7f4e487b7100000000000000000000000000000000000000000000000000000000600052603260045260246000fd5b7f4f776e61626c653a206e6577206f776e657220697320746865207a65726f206160008201527f6464726573730000000000000000000000000000000000000000000000000000602082015250565b6000612a4e60268361210c565b9150612a59826129f2565b604082019050919050565b60006020820190508181036000830152612a7d81612a41565b9050919050565b7f45524332303a20617070726f76652066726f6d20746865207a65726f2061646460008201527f7265737300000000000000000000000000000000000000000000000000000000602082015250565b6000612ae060248361210c565b9150612aeb82612a84565b604082019050919050565b60006020820190508181036000830152612b0f81612ad3565b9050919050565b7f45524332303a20617070726f766520746f20746865207a65726f20616464726560008201527f7373000000000000000000000000000000000000000000000000000000000000602082015250565b6000612b7260228361210c565b9150612b7d82612b16565b604082019050919050565b60006020820190508181036000830152612ba181612b65565b9050919050565b7f45524332303a20696e73756666696369656e7420616c6c6f77616e6365000000600082015250565b6000612bde601d8361210c565b9150612be982612ba8565b602082019050919050565b60006020820190508181036000830152612c0d81612bd1565b9050919050565b7f45524332303a207472616e736665722066726f6d20746865207a65726f20616460008201527f6472657373000000000000000000000000000000000000000000000000000000602082015250565b6000612c7060258361210c565b9150612c7b82612c14565b604082019050919050565b60006020820190508181036000830152612c9f81612c63565b9050919050565b7f45524332303a207472616e7366657220746f20746865207a65726f206164647260008201527f6573730000000000000000000000000000000000000000000000000000000000602082015250565b6000612d0260238361210c565b9150612d0d82612ca6565b604082019050919050565b60006020820190508181036000830152612d3181612cf5565b9050919050565b7f45524332303a207472616e7366657220616d6f756e742065786365656473206260008201527f616c616e63650000000000000000000000000000000000000000000000000000602082015250565b6000612d9460268361210c565b9150612d9f82612d38565b604082019050919050565b60006020820190508181036000830152612dc381612d87565b9050919050565b7f4f776e61626c653a2063616c6c6572206973206e6f7420746865206f776e6572600082015250565b6000612e0060208361210c565b9150612e0b82612dca565b602082019050919050565b60006020820190508181036000830152612e2f81612df3565b9050919050565b7f45524332303a206d696e7420746f20746865207a65726f206164647265737300600082015250565b6000612e6c601f8361210c565b9150612e7782612e36565b602082019050919050565b60006020820190508181036000830152612e9b81612e5f565b9050919050565b7f45524332303a206275726e2066726f6d20746865207a65726f2061646472657360008201527f7300000000000000000000000000000000000000000000000000000000000000602082015250565b6000612efe60218361210c565b9150612f0982612ea2565b604082019050919050565b60006020820190508181036000830152612f2d81612ef1565b9050919050565b7f45524332303a206275726e20616d6f756e7420657863656564732062616c616e60008201527f6365000000000000000000000000000000000000000000000000000000000000602082015250565b6000612f9060228361210c565b9150612f9b82612f34565b604082019050919050565b60006020820190508181036000830152612fbf81612f83565b905091905056fea2646970667358221220d0b649640dd3c01b58c094cbadd9485aaa9e66028cbfc4302c1c52479825837964736f6c63430008110033",
  "linkReferences": {},
  "deployedLinkReferences": {}
}